{
  "_format": "hh-sol-artifact-1",
  "contractName": "MultiSigWalletFactory",
  "sourceName": "contracts/MultiSignatureWallet.sol",
  "abi": [
    {
      "inputs": [
        {
          "internalType": "address",
          "name": "",
          "type": "address"
        }
      ],
      "name": "backupMapping",
      "outputs": [
        {
          "internalType": "address",
          "name": "",
          "type": "address"
        }
      ],
      "stateMutability": "view",
      "type": "function"
    },
    {
      "inputs": [
        {
          "internalType": "address",
          "name": "main",
          "type": "address"
        },
        {
          "internalType": "address",
          "name": "backup",
          "type": "address"
        },
        {
          "internalType": "address",
          "name": "server",
          "type": "address"
        }
      ],
      "name": "createWallet",
      "outputs": [],
      "stateMutability": "nonpayable",
      "type": "function"
    },
    {
      "inputs": [
        {
          "internalType": "address",
          "name": "",
          "type": "address"
        }
      ],
      "name": "mainFromBackupMapping",
      "outputs": [
        {
          "internalType": "address",
          "name": "",
          "type": "address"
        }
      ],
      "stateMutability": "view",
      "type": "function"
    },
    {
      "inputs": [
        {
          "internalType": "address",
          "name": "",
          "type": "address"
        }
      ],
      "name": "mainMapping",
      "outputs": [
        {
          "internalType": "address",
          "name": "",
          "type": "address"
        }
      ],
      "stateMutability": "view",
      "type": "function"
    }
  ],
  "bytecode": "0x608060405234801561001057600080fd5b50612113806100206000396000f3fe60806040523480156200001157600080fd5b5060043610620000525760003560e01c8063018f2680146200005757806364f8ca84146200008d57806382fea74d14620000c3578063a839405114620000e3575b600080fd5b6200007560048036038101906200006f91906200058b565b62000119565b604051620000849190620005ce565b60405180910390f35b620000ab6004803603810190620000a591906200058b565b6200014c565b604051620000ba9190620005ce565b60405180910390f35b620000e16004803603810190620000db9190620005eb565b6200017f565b005b620001016004803603810190620000fb91906200058b565b620004e0565b604051620001109190620005ce565b60405180910390f35b60006020528060005260406000206000915054906101000a900473ffffffffffffffffffffffffffffffffffffffff1681565b60016020528060005260406000206000915054906101000a900473ffffffffffffffffffffffffffffffffffffffff1681565b600073ffffffffffffffffffffffffffffffffffffffff166000808573ffffffffffffffffffffffffffffffffffffffff1673ffffffffffffffffffffffffffffffffffffffff16815260200190815260200160002060009054906101000a900473ffffffffffffffffffffffffffffffffffffffff1673ffffffffffffffffffffffffffffffffffffffff16146200024f576040517f08c379a00000000000000000000000000000000000000000000000000000000081526004016200024690620006a8565b60405180910390fd5b600073ffffffffffffffffffffffffffffffffffffffff16600160008473ffffffffffffffffffffffffffffffffffffffff1673ffffffffffffffffffffffffffffffffffffffff16815260200190815260200160002060009054906101000a900473ffffffffffffffffffffffffffffffffffffffff1673ffffffffffffffffffffffffffffffffffffffff161462000320576040517f08c379a000000000000000000000000000000000000000000000000000000000815260040162000317906200071a565b60405180910390fd5b6000838383604051620003339062000513565b62000341939291906200073c565b604051809103906000f0801580156200035e573d6000803e3d6000fd5b509050806000808673ffffffffffffffffffffffffffffffffffffffff1673ffffffffffffffffffffffffffffffffffffffff16815260200190815260200160002060006101000a81548173ffffffffffffffffffffffffffffffffffffffff021916908373ffffffffffffffffffffffffffffffffffffffff16021790555080600160008573ffffffffffffffffffffffffffffffffffffffff1673ffffffffffffffffffffffffffffffffffffffff16815260200190815260200160002060006101000a81548173ffffffffffffffffffffffffffffffffffffffff021916908373ffffffffffffffffffffffffffffffffffffffff16021790555083600260008573ffffffffffffffffffffffffffffffffffffffff1673ffffffffffffffffffffffffffffffffffffffff16815260200190815260200160002060006101000a81548173ffffffffffffffffffffffffffffffffffffffff021916908373ffffffffffffffffffffffffffffffffffffffff16021790555050505050565b60026020528060005260406000206000915054906101000a900473ffffffffffffffffffffffffffffffffffffffff1681565b611964806200077a83390190565b600080fd5b600073ffffffffffffffffffffffffffffffffffffffff82169050919050565b6000620005538262000526565b9050919050565b620005658162000546565b81146200057157600080fd5b50565b60008135905062000585816200055a565b92915050565b600060208284031215620005a457620005a362000521565b5b6000620005b48482850162000574565b91505092915050565b620005c88162000546565b82525050565b6000602082019050620005e56000830184620005bd565b92915050565b60008060006060848603121562000607576200060662000521565b5b6000620006178682870162000574565b93505060206200062a8682870162000574565b92505060406200063d8682870162000574565b9150509250925092565b600082825260208201905092915050565b7f4d61696e206164647265737320616c7265616479206578697374730000000000600082015250565b600062000690601b8362000647565b91506200069d8262000658565b602082019050919050565b60006020820190508181036000830152620006c38162000681565b9050919050565b7f4261636b7570206164647265737320616c726561647920657869737473000000600082015250565b600062000702601d8362000647565b91506200070f82620006ca565b602082019050919050565b600060208201905081810360008301526200073581620006f3565b9050919050565b6000606082019050620007536000830186620005bd565b620007626020830185620005bd565b620007716040830184620005bd565b94935050505056fe60806040523480156200001157600080fd5b50604051620019643803806200196483398181016040528101906200003791906200051d565b600073ffffffffffffffffffffffffffffffffffffffff168373ffffffffffffffffffffffffffffffffffffffff1603620000a9576040517f08c379a0000000000000000000000000000000000000000000000000000000008152600401620000a090620005da565b60405180910390fd5b600073ffffffffffffffffffffffffffffffffffffffff168273ffffffffffffffffffffffffffffffffffffffff16036200011b576040517f08c379a000000000000000000000000000000000000000000000000000000000815260040162000112906200064c565b60405180910390fd5b600073ffffffffffffffffffffffffffffffffffffffff168173ffffffffffffffffffffffffffffffffffffffff16036200018d576040517f08c379a00000000000000000000000000000000000000000000000000000000081526004016200018490620006be565b60405180910390fd5b8173ffffffffffffffffffffffffffffffffffffffff168373ffffffffffffffffffffffffffffffffffffffff1603620001fe576040517f08c379a0000000000000000000000000000000000000000000000000000000008152600401620001f59062000756565b60405180910390fd5b8073ffffffffffffffffffffffffffffffffffffffff168373ffffffffffffffffffffffffffffffffffffffff16036200026f576040517f08c379a00000000000000000000000000000000000000000000000000000000081526004016200026690620007ee565b60405180910390fd5b8073ffffffffffffffffffffffffffffffffffffffff168273ffffffffffffffffffffffffffffffffffffffff1603620002e0576040517f08c379a0000000000000000000000000000000000000000000000000000000008152600401620002d79062000886565b60405180910390fd5b806000806101000a81548173ffffffffffffffffffffffffffffffffffffffff021916908373ffffffffffffffffffffffffffffffffffffffff16021790555081600160006101000a81548173ffffffffffffffffffffffffffffffffffffffff021916908373ffffffffffffffffffffffffffffffffffffffff16021790555082600260006101000a81548173ffffffffffffffffffffffffffffffffffffffff021916908373ffffffffffffffffffffffffffffffffffffffff1602179055506001600360008573ffffffffffffffffffffffffffffffffffffffff1673ffffffffffffffffffffffffffffffffffffffff16815260200190815260200160002060006101000a81548160ff0219169083151502179055506001600360008473ffffffffffffffffffffffffffffffffffffffff1673ffffffffffffffffffffffffffffffffffffffff16815260200190815260200160002060006101000a81548160ff0219169083151502179055506001600360008373ffffffffffffffffffffffffffffffffffffffff1673ffffffffffffffffffffffffffffffffffffffff16815260200190815260200160002060006101000a81548160ff021916908315150217905550505050620008a8565b600080fd5b600073ffffffffffffffffffffffffffffffffffffffff82169050919050565b6000620004e582620004b8565b9050919050565b620004f781620004d8565b81146200050357600080fd5b50565b6000815190506200051781620004ec565b92915050565b600080600060608486031215620005395762000538620004b3565b5b6000620005498682870162000506565b93505060206200055c8682870162000506565b92505060406200056f8682870162000506565b9150509250925092565b600082825260208201905092915050565b7f6d61696e20697320746865207a65726f20616464726573730000000000000000600082015250565b6000620005c260188362000579565b9150620005cf826200058a565b602082019050919050565b60006020820190508181036000830152620005f581620005b3565b9050919050565b7f6261636b757020697320746865207a65726f2061646472657373000000000000600082015250565b600062000634601a8362000579565b91506200064182620005fc565b602082019050919050565b60006020820190508181036000830152620006678162000625565b9050919050565b7f73657276657220697320746865207a65726f2061646472657373000000000000600082015250565b6000620006a6601a8362000579565b9150620006b3826200066e565b602082019050919050565b60006020820190508181036000830152620006d98162000697565b9050919050565b7f6d61696e20616e64206261636b757020617265207468652073616d652061646460008201527f7265737300000000000000000000000000000000000000000000000000000000602082015250565b60006200073e60248362000579565b91506200074b82620006e0565b604082019050919050565b6000602082019050818103600083015262000771816200072f565b9050919050565b7f6d61696e20616e642073657276657220617265207468652073616d652061646460008201527f7265737300000000000000000000000000000000000000000000000000000000602082015250565b6000620007d660248362000579565b9150620007e38262000778565b604082019050919050565b600060208201905081810360008301526200080981620007c7565b9050919050565b7f6261636b757020616e642073657276657220617265207468652073616d65206160008201527f6464726573730000000000000000000000000000000000000000000000000000602082015250565b60006200086e60268362000579565b91506200087b8262000810565b604082019050919050565b60006020820190508181036000830152620008a1816200085f565b9050919050565b6110ac80620008b86000396000f3fe6080604052600436106100955760003560e01c806333ea3dc81161005957806333ea3dc8146101d857806335ba3d731461021757806380f59a65146102425780639ace38c21461027f578063c01a8c84146102be576100ec565b8063019b1576146100f15780630cdd42341461011c5780631d43b653146101475780632e7700f0146101705780632f54bf6e1461019b576100ec565b366100ec573373ffffffffffffffffffffffffffffffffffffffff167f90890809c654f11d6e72a28fa60149770a0d11ec6c92319d6ceb2bb0a4ea1a1534476040516100e2929190610b24565b60405180910390a2005b600080fd5b3480156100fd57600080fd5b506101066102e7565b6040516101139190610b8e565b60405180910390f35b34801561012857600080fd5b5061013161030d565b60405161013e9190610b8e565b60405180910390f35b34801561015357600080fd5b5061016e60048036038101906101699190610c06565b610333565b005b34801561017c57600080fd5b506101856105fd565b6040516101929190610c46565b60405180910390f35b3480156101a757600080fd5b506101c260048036038101906101bd9190610c61565b61060a565b6040516101cf9190610ca9565b60405180910390f35b3480156101e457600080fd5b506101ff60048036038101906101fa9190610cc4565b61062a565b60405161020e93929190610cf1565b60405180910390f35b34801561022357600080fd5b5061022c61069e565b6040516102399190610b8e565b60405180910390f35b34801561024e57600080fd5b5061026960048036038101906102649190610d28565b6106c2565b6040516102769190610ca9565b60405180910390f35b34801561028b57600080fd5b506102a660048036038101906102a19190610cc4565b6106f1565b6040516102b593929190610cf1565b60405180910390f35b3480156102ca57600080fd5b506102e560048036038101906102e09190610cc4565b610758565b005b600160009054906101000a900473ffffffffffffffffffffffffffffffffffffffff1681565b600260009054906101000a900473ffffffffffffffffffffffffffffffffffffffff1681565b600360003373ffffffffffffffffffffffffffffffffffffffff1673ffffffffffffffffffffffffffffffffffffffff16815260200190815260200160002060009054906101000a900460ff166103bf576040517f08c379a00000000000000000000000000000000000000000000000000000000081526004016103b690610dc5565b60405180910390fd5b60008054906101000a900473ffffffffffffffffffffffffffffffffffffffff1673ffffffffffffffffffffffffffffffffffffffff163373ffffffffffffffffffffffffffffffffffffffff160361044d576040517f08c379a000000000000000000000000000000000000000000000000000000000815260040161044490610e31565b60405180910390fd5b60006005805490509050600560405180606001604052808573ffffffffffffffffffffffffffffffffffffffff16815260200184815260200160001515815250908060018154018082558091505060019003906000526020600020906003020160009091909190915060008201518160000160006101000a81548173ffffffffffffffffffffffffffffffffffffffff021916908373ffffffffffffffffffffffffffffffffffffffff1602179055506020820151816001015560408201518160020160006101000a81548160ff021916908315150217905550505060016004600083815260200190815260200160002060003373ffffffffffffffffffffffffffffffffffffffff1673ffffffffffffffffffffffffffffffffffffffff16815260200190815260200160002060006101000a81548160ff0219169083151502179055508273ffffffffffffffffffffffffffffffffffffffff16813373ffffffffffffffffffffffffffffffffffffffff167fcd144288a078b7562351164feb1762115faca27f30827b4142f2bbe27166e320856040516105f09190610c46565b60405180910390a4505050565b6000600580549050905090565b60036020528060005260406000206000915054906101000a900460ff1681565b6000806000806005858154811061064457610643610e51565b5b906000526020600020906003020190508060000160009054906101000a900473ffffffffffffffffffffffffffffffffffffffff1681600101548260020160009054906101000a900460ff16935093509350509193909250565b60008054906101000a900473ffffffffffffffffffffffffffffffffffffffff1681565b60046020528160005260406000206020528060005260406000206000915091509054906101000a900460ff1681565b6005818154811061070157600080fd5b90600052602060002090600302016000915090508060000160009054906101000a900473ffffffffffffffffffffffffffffffffffffffff16908060010154908060020160009054906101000a900460ff16905083565b600360003373ffffffffffffffffffffffffffffffffffffffff1673ffffffffffffffffffffffffffffffffffffffff16815260200190815260200160002060009054906101000a900460ff166107e4576040517f08c379a00000000000000000000000000000000000000000000000000000000081526004016107db90610dc5565b60405180910390fd5b80600580549050811061082c576040517f08c379a000000000000000000000000000000000000000000000000000000000815260040161082390610ecc565b60405180910390fd5b816005818154811061084157610840610e51565b5b906000526020600020906003020160020160009054906101000a900460ff16156108a0576040517f08c379a000000000000000000000000000000000000000000000000000000000815260040161089790610f38565b60405180910390fd5b826004600082815260200190815260200160002060003373ffffffffffffffffffffffffffffffffffffffff1673ffffffffffffffffffffffffffffffffffffffff16815260200190815260200160002060009054906101000a900460ff161561093f576040517f08c379a000000000000000000000000000000000000000000000000000000000815260040161093690610fa4565b60405180910390fd5b60006005858154811061095557610954610e51565b5b9060005260206000209060030201905060016004600087815260200190815260200160002060003373ffffffffffffffffffffffffffffffffffffffff1673ffffffffffffffffffffffffffffffffffffffff16815260200190815260200160002060006101000a81548160ff02191690831515021790555060018160020160006101000a81548160ff02191690831515021790555060008160000160009054906101000a900473ffffffffffffffffffffffffffffffffffffffff1673ffffffffffffffffffffffffffffffffffffffff168260010154604051610a3990610ff5565b60006040518083038185875af1925050503d8060008114610a76576040519150601f19603f3d011682016040523d82523d6000602084013e610a7b565b606091505b5050905080610abf576040517f08c379a0000000000000000000000000000000000000000000000000000000008152600401610ab690611056565b60405180910390fd5b853373ffffffffffffffffffffffffffffffffffffffff167f5445f318f4f5fcfb66592e68e0cc5822aa15664039bd5f0ffde24c5a8142b1ac60405160405180910390a3505050505050565b6000819050919050565b610b1e81610b0b565b82525050565b6000604082019050610b396000830185610b15565b610b466020830184610b15565b9392505050565b600073ffffffffffffffffffffffffffffffffffffffff82169050919050565b6000610b7882610b4d565b9050919050565b610b8881610b6d565b82525050565b6000602082019050610ba36000830184610b7f565b92915050565b600080fd5b610bb781610b6d565b8114610bc257600080fd5b50565b600081359050610bd481610bae565b92915050565b610be381610b0b565b8114610bee57600080fd5b50565b600081359050610c0081610bda565b92915050565b60008060408385031215610c1d57610c1c610ba9565b5b6000610c2b85828601610bc5565b9250506020610c3c85828601610bf1565b9150509250929050565b6000602082019050610c5b6000830184610b15565b92915050565b600060208284031215610c7757610c76610ba9565b5b6000610c8584828501610bc5565b91505092915050565b60008115159050919050565b610ca381610c8e565b82525050565b6000602082019050610cbe6000830184610c9a565b92915050565b600060208284031215610cda57610cd9610ba9565b5b6000610ce884828501610bf1565b91505092915050565b6000606082019050610d066000830186610b7f565b610d136020830185610b15565b610d206040830184610c9a565b949350505050565b60008060408385031215610d3f57610d3e610ba9565b5b6000610d4d85828601610bf1565b9250506020610d5e85828601610bc5565b9150509250929050565b600082825260208201905092915050565b7f6e6f74206f776e65720000000000000000000000000000000000000000000000600082015250565b6000610daf600983610d68565b9150610dba82610d79565b602082019050919050565b60006020820190508181036000830152610dde81610da2565b9050919050565b7f7365727665720000000000000000000000000000000000000000000000000000600082015250565b6000610e1b600683610d68565b9150610e2682610de5565b602082019050919050565b60006020820190508181036000830152610e4a81610e0e565b9050919050565b7f4e487b7100000000000000000000000000000000000000000000000000000000600052603260045260246000fd5b7f747820646f6573206e6f74206578697374000000000000000000000000000000600082015250565b6000610eb6601183610d68565b9150610ec182610e80565b602082019050919050565b60006020820190508181036000830152610ee581610ea9565b9050919050565b7f747820616c726561647920657865637574656400000000000000000000000000600082015250565b6000610f22601383610d68565b9150610f2d82610eec565b602082019050919050565b60006020820190508181036000830152610f5181610f15565b9050919050565b7f747820616c726561647920636f6e6669726d6564000000000000000000000000600082015250565b6000610f8e601483610d68565b9150610f9982610f58565b602082019050919050565b60006020820190508181036000830152610fbd81610f81565b9050919050565b600081905092915050565b50565b6000610fdf600083610fc4565b9150610fea82610fcf565b600082019050919050565b600061100082610fd2565b9150819050919050565b7f7478206661696c65640000000000000000000000000000000000000000000000600082015250565b6000611040600983610d68565b915061104b8261100a565b602082019050919050565b6000602082019050818103600083015261106f81611033565b905091905056fea2646970667358221220f9e091ba0d49ac66a509af707eba5325452114054a56b6160a3083e26c0b019d64736f6c63430008110033a2646970667358221220c1bc6037a69761ef5dafc8b577dee8a530fe36d972e5cca7b6dc5e4d529a099564736f6c63430008110033",
  "linkReferences": {},
  "deployedLinkReferences": {}
}